{
  "contractName": "CrowFounding",
  "abi": [
    {
      "inputs": [
        {
          "internalType": "string",
          "name": "_id",
          "type": "string"
        },
        {
          "internalType": "string",
          "name": "_name",
          "type": "string"
        },
        {
          "internalType": "string",
          "name": "_description",
          "type": "string"
        },
        {
          "internalType": "uint256",
          "name": "_fundraisInGoal",
          "type": "uint256"
        }
      ],
      "stateMutability": "nonpayable",
      "type": "constructor"
    },
    {
      "anonymous": false,
      "inputs": [
        {
          "indexed": false,
          "internalType": "address",
          "name": "editor",
          "type": "address"
        },
        {
          "indexed": false,
          "internalType": "string",
          "name": "newName",
          "type": "string"
        }
      ],
      "name": "ChangeProjectNameEvent",
      "type": "event"
    },
    {
      "anonymous": false,
      "inputs": [
        {
          "indexed": false,
          "internalType": "string",
          "name": "id",
          "type": "string"
        },
        {
          "indexed": false,
          "internalType": "string",
          "name": "name",
          "type": "string"
        },
        {
          "indexed": false,
          "internalType": "address",
          "name": "owner",
          "type": "address"
        }
      ],
      "name": "CreateProjectEvent",
      "type": "event"
    },
    {
      "anonymous": false,
      "inputs": [
        {
          "indexed": false,
          "internalType": "address",
          "name": "contributorWallet",
          "type": "address"
        },
        {
          "indexed": false,
          "internalType": "uint256",
          "name": "ammount",
          "type": "uint256"
        }
      ],
      "name": "FundProjectEvent",
      "type": "event"
    },
    {
      "inputs": [
        {
          "internalType": "string",
          "name": "",
          "type": "string"
        },
        {
          "internalType": "uint256",
          "name": "",
          "type": "uint256"
        }
      ],
      "name": "contributions",
      "outputs": [
        {
          "internalType": "address",
          "name": "contributor",
          "type": "address"
        },
        {
          "internalType": "uint256",
          "name": "value",
          "type": "uint256"
        }
      ],
      "stateMutability": "view",
      "type": "function"
    },
    {
      "inputs": [
        {
          "internalType": "uint256",
          "name": "",
          "type": "uint256"
        }
      ],
      "name": "projects",
      "outputs": [
        {
          "internalType": "string",
          "name": "id",
          "type": "string"
        },
        {
          "internalType": "string",
          "name": "name",
          "type": "string"
        },
        {
          "internalType": "string",
          "name": "description",
          "type": "string"
        },
        {
          "internalType": "address payable",
          "name": "authorWallet",
          "type": "address"
        },
        {
          "internalType": "bool",
          "name": "isOpen",
          "type": "bool"
        },
        {
          "internalType": "uint256",
          "name": "founds",
          "type": "uint256"
        },
        {
          "internalType": "uint256",
          "name": "fundraisInGoal",
          "type": "uint256"
        },
        {
          "internalType": "address",
          "name": "owner",
          "type": "address"
        }
      ],
      "stateMutability": "view",
      "type": "function"
    },
    {
      "inputs": [
        {
          "internalType": "string",
          "name": "_id",
          "type": "string"
        },
        {
          "internalType": "string",
          "name": "_name",
          "type": "string"
        },
        {
          "internalType": "string",
          "name": "_description",
          "type": "string"
        },
        {
          "internalType": "uint256",
          "name": "_fundraisInGoal",
          "type": "uint256"
        }
      ],
      "name": "createProject",
      "outputs": [],
      "stateMutability": "nonpayable",
      "type": "function"
    },
    {
      "inputs": [
        {
          "internalType": "uint256",
          "name": "projectIndex",
          "type": "uint256"
        }
      ],
      "name": "fundProject",
      "outputs": [],
      "stateMutability": "payable",
      "type": "function"
    },
    {
      "inputs": [
        {
          "internalType": "uint256",
          "name": "projectIndex",
          "type": "uint256"
        },
        {
          "internalType": "string",
          "name": "_newProjectName",
          "type": "string"
        }
      ],
      "name": "changeProjectName",
      "outputs": [],
      "stateMutability": "nonpayable",
      "type": "function"
    }
  ],
  "bytecode": "0x60806040523480156200001157600080fd5b5060405162001f0838038062001f08833981810160405281019062000037919062000342565b60006040518061010001604052808681526020018581526020018481526020013373ffffffffffffffffffffffffffffffffffffffff168152602001600115158152602001600081526020018381526020013373ffffffffffffffffffffffffffffffffffffffff16815250905060008190806001815401808255809150506001900390600052602060002090600702016000909190919091506000820151816000019080519060200190620000ef929190620001fd565b5060208201518160010190805190602001906200010e929190620001fd565b5060408201518160020190805190602001906200012d929190620001fd565b5060608201518160030160006101000a81548173ffffffffffffffffffffffffffffffffffffffff021916908373ffffffffffffffffffffffffffffffffffffffff16021790555060808201518160030160146101000a81548160ff02191690831515021790555060a0820151816004015560c0820151816005015560e08201518160060160006101000a81548173ffffffffffffffffffffffffffffffffffffffff021916908373ffffffffffffffffffffffffffffffffffffffff16021790555050505050505050620005b9565b8280546200020b90620004b0565b90600052602060002090601f0160209004810192826200022f57600085556200027b565b82601f106200024a57805160ff19168380011785556200027b565b828001600101855582156200027b579182015b828111156200027a5782518255916020019190600101906200025d565b5b5090506200028a91906200028e565b5090565b5b80821115620002a95760008160009055506001016200028f565b5090565b6000620002c4620002be846200043a565b62000411565b905082815260208101848484011115620002e357620002e26200057f565b5b620002f08482856200047a565b509392505050565b600082601f83011262000310576200030f6200057a565b5b815162000322848260208601620002ad565b91505092915050565b6000815190506200033c816200059f565b92915050565b600080600080608085870312156200035f576200035e62000589565b5b600085015167ffffffffffffffff81111562000380576200037f62000584565b5b6200038e87828801620002f8565b945050602085015167ffffffffffffffff811115620003b257620003b162000584565b5b620003c087828801620002f8565b935050604085015167ffffffffffffffff811115620003e457620003e362000584565b5b620003f287828801620002f8565b925050606062000405878288016200032b565b91505092959194509250565b60006200041d62000430565b90506200042b8282620004e6565b919050565b6000604051905090565b600067ffffffffffffffff8211156200045857620004576200054b565b5b62000463826200058e565b9050602081019050919050565b6000819050919050565b60005b838110156200049a5780820151818401526020810190506200047d565b83811115620004aa576000848401525b50505050565b60006002820490506001821680620004c957607f821691505b60208210811415620004e057620004df6200051c565b5b50919050565b620004f1826200058e565b810181811067ffffffffffffffff821117156200051357620005126200054b565b5b80604052505050565b7f4e487b7100000000000000000000000000000000000000000000000000000000600052602260045260246000fd5b7f4e487b7100000000000000000000000000000000000000000000000000000000600052604160045260246000fd5b600080fd5b600080fd5b600080fd5b600080fd5b6000601f19601f8301169050919050565b620005aa8162000470565b8114620005b657600080fd5b50565b61193f80620005c96000396000f3fe60806040526004361061004a5760003560e01c8063107046bd1461004f5780631ca73896146100935780635dce7849146100bc5780636c563abe146100e55780637f3fcdd914610101575b600080fd5b34801561005b57600080fd5b50610076600480360381019061007191906111f9565b61013f565b60405161008a989796959493929190611421565b60405180910390f35b34801561009f57600080fd5b506100ba60048036038101906100b591906110e2565b61037c565b005b3480156100c857600080fd5b506100e360048036038101906100de9190611226565b610573565b005b6100ff60048036038101906100fa91906111f9565b610931565b005b34801561010d57600080fd5b506101286004803603810190610123919061119d565b610f43565b6040516101369291906113b3565b60405180910390f35b6000818154811061014f57600080fd5b906000526020600020906007020160009150905080600001805461017290611698565b80601f016020809104026020016040519081016040528092919081815260200182805461019e90611698565b80156101eb5780601f106101c0576101008083540402835291602001916101eb565b820191906000526020600020905b8154815290600101906020018083116101ce57829003601f168201915b50505050509080600101805461020090611698565b80601f016020809104026020016040519081016040528092919081815260200182805461022c90611698565b80156102795780601f1061024e57610100808354040283529160200191610279565b820191906000526020600020905b81548152906001019060200180831161025c57829003601f168201915b50505050509080600201805461028e90611698565b80601f01602080910402602001604051908101604052809291908181526020018280546102ba90611698565b80156103075780601f106102dc57610100808354040283529160200191610307565b820191906000526020600020905b8154815290600101906020018083116102ea57829003601f168201915b5050505050908060030160009054906101000a900473ffffffffffffffffffffffffffffffffffffffff16908060030160149054906101000a900460ff16908060040154908060050154908060060160009054906101000a900473ffffffffffffffffffffffffffffffffffffffff16905088565b60006040518061010001604052808681526020018581526020018481526020013373ffffffffffffffffffffffffffffffffffffffff168152602001600115158152602001600081526020018381526020013373ffffffffffffffffffffffffffffffffffffffff16815250905060008190806001815401808255809150506001900390600052602060002090600702016000909190919091506000820151816000019080519060200190610432929190610fba565b50602082015181600101908051906020019061044f929190610fba565b50604082015181600201908051906020019061046c929190610fba565b5060608201518160030160006101000a81548173ffffffffffffffffffffffffffffffffffffffff021916908373ffffffffffffffffffffffffffffffffffffffff16021790555060808201518160030160146101000a81548160ff02191690831515021790555060a0820151816004015560c0820151816005015560e08201518160060160006101000a81548173ffffffffffffffffffffffffffffffffffffffff021916908373ffffffffffffffffffffffffffffffffffffffff16021790555050507f25dfccbcf7888b6874272caf69b65c90af42473202dfd382436576846e81fe2f858533604051610564939291906113dc565b60405180910390a15050505050565b813373ffffffffffffffffffffffffffffffffffffffff166000828154811061059f5761059e611759565b5b906000526020600020906007020160060160009054906101000a900473ffffffffffffffffffffffffffffffffffffffff1673ffffffffffffffffffffffffffffffffffffffff1614610627576040517f08c379a000000000000000000000000000000000000000000000000000000000815260040161061e906114f4565b60405180910390fd5b600080848154811061063c5761063b611759565b5b90600052602060002090600702016040518061010001604052908160008201805461066690611698565b80601f016020809104026020016040519081016040528092919081815260200182805461069290611698565b80156106df5780601f106106b4576101008083540402835291602001916106df565b820191906000526020600020905b8154815290600101906020018083116106c257829003601f168201915b505050505081526020016001820180546106f890611698565b80601f016020809104026020016040519081016040528092919081815260200182805461072490611698565b80156107715780601f1061074657610100808354040283529160200191610771565b820191906000526020600020905b81548152906001019060200180831161075457829003601f168201915b5050505050815260200160028201805461078a90611698565b80601f01602080910402602001604051908101604052809291908181526020018280546107b690611698565b80156108035780601f106107d857610100808354040283529160200191610803565b820191906000526020600020905b8154815290600101906020018083116107e657829003601f168201915b505050505081526020016003820160009054906101000a900473ffffffffffffffffffffffffffffffffffffffff1673ffffffffffffffffffffffffffffffffffffffff1673ffffffffffffffffffffffffffffffffffffffff1681526020016003820160149054906101000a900460ff1615151515815260200160048201548152602001600582015481526020016006820160009054906101000a900473ffffffffffffffffffffffffffffffffffffffff1673ffffffffffffffffffffffffffffffffffffffff1673ffffffffffffffffffffffffffffffffffffffff168152505090508281602001819052507f6e8a4c17b72c866dfa7bdb94d986b09e7f85d99430c5838473b8a43abe4609053384604051610923929190611383565b60405180910390a150505050565b803373ffffffffffffffffffffffffffffffffffffffff166000828154811061095d5761095c611759565b5b906000526020600020906007020160060160009054906101000a900473ffffffffffffffffffffffffffffffffffffffff1673ffffffffffffffffffffffffffffffffffffffff1614156109e6576040517f08c379a00000000000000000000000000000000000000000000000000000000081526004016109dd90611514565b60405180910390fd5b60008083815481106109fb576109fa611759565b5b906000526020600020906007020160405180610100016040529081600082018054610a2590611698565b80601f0160208091040260200160405190810160405280929190818152602001828054610a5190611698565b8015610a9e5780601f10610a7357610100808354040283529160200191610a9e565b820191906000526020600020905b815481529060010190602001808311610a8157829003601f168201915b50505050508152602001600182018054610ab790611698565b80601f0160208091040260200160405190810160405280929190818152602001828054610ae390611698565b8015610b305780601f10610b0557610100808354040283529160200191610b30565b820191906000526020600020905b815481529060010190602001808311610b1357829003601f168201915b50505050508152602001600282018054610b4990611698565b80601f0160208091040260200160405190810160405280929190818152602001828054610b7590611698565b8015610bc25780601f10610b9757610100808354040283529160200191610bc2565b820191906000526020600020905b815481529060010190602001808311610ba557829003601f168201915b505050505081526020016003820160009054906101000a900473ffffffffffffffffffffffffffffffffffffffff1673ffffffffffffffffffffffffffffffffffffffff1673ffffffffffffffffffffffffffffffffffffffff1681526020016003820160149054906101000a900460ff1615151515815260200160048201548152602001600582015481526020016006820160009054906101000a900473ffffffffffffffffffffffffffffffffffffffff1673ffffffffffffffffffffffffffffffffffffffff1673ffffffffffffffffffffffffffffffffffffffff16815250509050600115158160800151151514610cf3576040517f08c379a0000000000000000000000000000000000000000000000000000000008152600401610cea906114d4565b60405180910390fd5b60003411610d36576040517f08c379a0000000000000000000000000000000000000000000000000000000008152600401610d2d906114b4565b60405180910390fd5b806060015173ffffffffffffffffffffffffffffffffffffffff166108fc349081150290604051600060405180830381858888f19350505050158015610d80573d6000803e3d6000fd5b508060008481548110610d9657610d95611759565b5b90600052602060002090600702016000820151816000019080519060200190610dc0929190610fba565b506020820151816001019080519060200190610ddd929190610fba565b506040820151816002019080519060200190610dfa929190610fba565b5060608201518160030160006101000a81548173ffffffffffffffffffffffffffffffffffffffff021916908373ffffffffffffffffffffffffffffffffffffffff16021790555060808201518160030160146101000a81548160ff02191690831515021790555060a0820151816004015560c0820151816005015560e08201518160060160006101000a81548173ffffffffffffffffffffffffffffffffffffffff021916908373ffffffffffffffffffffffffffffffffffffffff160217905550905050806080015115610f1d57348160a001818151610edc91906115a6565b915081815250507f85ab89d354b8a0c9537f712a4d73165f7ed0290f93f1e996c5b4683601e3fb083334604051610f149291906113b3565b60405180910390a15b8060c001518160a0015110610f3e5760008160800190151590811515815250505b505050565b6001828051602081018201805184825260208301602085012081835280955050505050508181548110610f7557600080fd5b9060005260206000209060020201600091509150508060000160009054906101000a900473ffffffffffffffffffffffffffffffffffffffff16908060010154905082565b828054610fc690611698565b90600052602060002090601f016020900481019282610fe8576000855561102f565b82601f1061100157805160ff191683800117855561102f565b8280016001018555821561102f579182015b8281111561102e578251825591602001919060010190611013565b5b50905061103c9190611040565b5090565b5b80821115611059576000816000905550600101611041565b5090565b600061107061106b84611559565b611534565b90508281526020810184848401111561108c5761108b6117bc565b5b611097848285611656565b509392505050565b600082601f8301126110b4576110b36117b7565b5b81356110c484826020860161105d565b91505092915050565b6000813590506110dc816118f2565b92915050565b600080600080608085870312156110fc576110fb6117c6565b5b600085013567ffffffffffffffff81111561111a576111196117c1565b5b6111268782880161109f565b945050602085013567ffffffffffffffff811115611147576111466117c1565b5b6111538782880161109f565b935050604085013567ffffffffffffffff811115611174576111736117c1565b5b6111808782880161109f565b9250506060611191878288016110cd565b91505092959194509250565b600080604083850312156111b4576111b36117c6565b5b600083013567ffffffffffffffff8111156111d2576111d16117c1565b5b6111de8582860161109f565b92505060206111ef858286016110cd565b9150509250929050565b60006020828403121561120f5761120e6117c6565b5b600061121d848285016110cd565b91505092915050565b6000806040838503121561123d5761123c6117c6565b5b600061124b858286016110cd565b925050602083013567ffffffffffffffff81111561126c5761126b6117c1565b5b6112788582860161109f565b9150509250929050565b61128b8161160e565b82525050565b61129a816115fc565b82525050565b6112a981611620565b82525050565b60006112ba8261158a565b6112c48185611595565b93506112d4818560208601611665565b6112dd816117cb565b840191505092915050565b60006112f5601d83611595565b9150611300826117dc565b602082019050919050565b6000611318602c83611595565b915061132382611805565b604082019050919050565b600061133b602383611595565b915061134682611854565b604082019050919050565b600061135e602e83611595565b9150611369826118a3565b604082019050919050565b61137d8161164c565b82525050565b60006040820190506113986000830185611291565b81810360208301526113aa81846112af565b90509392505050565b60006040820190506113c86000830185611291565b6113d56020830184611374565b9392505050565b600060608201905081810360008301526113f681866112af565b9050818103602083015261140a81856112af565b90506114196040830184611291565b949350505050565b600061010082019050818103600083015261143c818b6112af565b90508181036020830152611450818a6112af565b9050818103604083015261146481896112af565b90506114736060830188611282565b61148060808301876112a0565b61148d60a0830186611374565b61149a60c0830185611374565b6114a760e0830184611291565b9998505050505050505050565b600060208201905081810360008301526114cd816112e8565b9050919050565b600060208201905081810360008301526114ed8161130b565b9050919050565b6000602082019050818103600083015261150d8161132e565b9050919050565b6000602082019050818103600083015261152d81611351565b9050919050565b600061153e61154f565b905061154a82826116ca565b919050565b6000604051905090565b600067ffffffffffffffff82111561157457611573611788565b5b61157d826117cb565b9050602081019050919050565b600081519050919050565b600082825260208201905092915050565b60006115b18261164c565b91506115bc8361164c565b9250827fffffffffffffffffffffffffffffffffffffffffffffffffffffffffffffffff038211156115f1576115f06116fb565b5b828201905092915050565b60006116078261162c565b9050919050565b60006116198261162c565b9050919050565b60008115159050919050565b600073ffffffffffffffffffffffffffffffffffffffff82169050919050565b6000819050919050565b82818337600083830152505050565b60005b83811015611683578082015181840152602081019050611668565b83811115611692576000848401525b50505050565b600060028204905060018216806116b057607f821691505b602082108114156116c4576116c361172a565b5b50919050565b6116d3826117cb565b810181811067ffffffffffffffff821117156116f2576116f1611788565b5b80604052505050565b7f4e487b7100000000000000000000000000000000000000000000000000000000600052601160045260246000fd5b7f4e487b7100000000000000000000000000000000000000000000000000000000600052602260045260246000fd5b7f4e487b7100000000000000000000000000000000000000000000000000000000600052603260045260246000fd5b7f4e487b7100000000000000000000000000000000000000000000000000000000600052604160045260246000fd5b600080fd5b600080fd5b600080fd5b600080fd5b6000601f19601f8301169050919050565b7f5468652076616c75652073686f756c64206265206d6f7265206f662030000000600082015250565b7f5468652070726f6a6563742073686f756c64206265206f70656e20746f20636160008201527f6e20636f6e747269627574650000000000000000000000000000000000000000602082015250565b7f4f6e6c7920746865206f776e65722063616e206d616b6520746869732061637460008201527f696f6e0000000000000000000000000000000000000000000000000000000000602082015250565b7f546865206f776e65722063616e6e6f7420636f6e7472696275746520746f206860008201527f6973206f776e2070726f6a656374000000000000000000000000000000000000602082015250565b6118fb8161164c565b811461190657600080fd5b5056fea26469706673582212201541d5d2e1d3e84cf4e64e8fa7850c11a3a5fc8c59b0999ef897721fa45642bf64736f6c63430008070033",
  "immutableReferences": {},
  "source": "// SPDX-License-Identifier: GPL-3.0\n\npragma solidity >=0.7.0 <0.9.0;\n\ncontract CrowFounding {\n    \n    struct Contribution {\n        address contributor;\n        uint value;\n    }\n    \n    struct Project {\n        string id;\n        string name;\n        string description;\n        address payable authorWallet;\n        bool isOpen;\n        uint founds;\n        uint fundraisInGoal;\n        address owner;\n    }\n    \n    Project[] public projects;\n    \n    mapping( string => Contribution[]) public contributions;\n    \n    constructor(\n        string memory _id, \n        string memory _name, \n        string memory _description,\n        uint _fundraisInGoal\n    ){\n        Project memory project = Project(_id, _name, _description, payable(msg.sender), true, 0, _fundraisInGoal, msg.sender);\n        \n        projects.push(project);\n    }\n    \n    // events\n    \n    event FundProjectEvent(\n        address contributorWallet,\n        uint ammount\n    );\n    \n    event ChangeProjectNameEvent(\n        address editor,\n        string newName\n    );\n    \n    event CreateProjectEvent(\n        string id,\n        string name,\n        address owner\n    );\n    // modifiers\n    \n    modifier isOwner(uint projectIndex){\n        require(\n            projects[projectIndex].owner == msg.sender,\n            \"Only the owner can make this action\"\n        );\n        \n        _;\n    }\n    \n    modifier isNotTheOwner(uint projectIndex){\n        require(\n            projects[projectIndex].owner != msg.sender,\n            \"The owner cannot contribute to his own project\"\n        );\n        \n        _;\n    }\n    \n    function createProject(\n        string memory _id, \n        string memory _name, \n        string memory _description,\n        uint _fundraisInGoal   \n    ) public {\n        Project memory project = Project(_id, _name, _description, payable(msg.sender), true, 0, _fundraisInGoal, msg.sender);\n        \n        projects.push(project);\n        \n        emit CreateProjectEvent(_id, _name, msg.sender);\n    }\n    \n    function fundProject(uint projectIndex) public payable isNotTheOwner(projectIndex) {\n        \n        Project memory project = projects[projectIndex];\n         \n        require(project.isOpen == true, 'The project should be open to can contribute');\n        require(msg.value > 0, 'The value should be more of 0');\n\n        project.authorWallet.transfer(msg.value);\n        \n        projects[projectIndex] = project;\n        \n        if(project.isOpen){\n            \n        project.founds += msg.value;\n        \n            emit FundProjectEvent(msg.sender, msg.value);\n        }\n\n        if(project.founds >= project.fundraisInGoal) {\n            project.isOpen = false;\n        }\n    }\n    \n    function changeProjectName(uint projectIndex, string memory _newProjectName) public isOwner(projectIndex){\n        Project memory project = projects[projectIndex];\n         \n        project.name = _newProjectName;\n        \n        emit ChangeProjectNameEvent(msg.sender, _newProjectName);\n    }\n    \n}",
  "sourcePath": "/Users/nicolasrestrepo/Documents/blockchain-course/crowfounding-solidity/contracts/Crowfounding.sol",
  "compiler": {
    "name": "solc",
    "version": "0.8.7+commit.e28d00a7.Emscripten.clang"
  },
  "schemaVersion": "3.4.3",
  "updatedAt": "2021-11-20T18:35:10.730Z",
  "devdoc": {
    "kind": "dev",
    "methods": {},
    "version": 1
  },
  "userdoc": {
    "kind": "user",
    "methods": {},
    "version": 1
  }
}